{"hash":"00000000467a752a3365c86f267d340635e66703ad4071c61e9b394ef172665b","confirmations":421184,"strippedsize":215,"size":215,"weight":860,"height":127,"version":1,"versionHex":"00000001","merkleroot":"0a4820413c11c1b9d28bff885a155da7ed1fcaf784d22f5b46796e2c4e83ace1","tx":[{"txid":"0a4820413c11c1b9d28bff885a155da7ed1fcaf784d22f5b46796e2c4e83ace1","hash":"0a4820413c11c1b9d28bff885a155da7ed1fcaf784d22f5b46796e2c4e83ace1","version":1,"size":134,"vsize":134,"weight":536,"locktime":0,"vin":[{"coinbase":"04ffff001d0106","sequence":4294967295}],"vout":[{"value":50,"n":0,"scriptPubKey":{"asm":"04b2b6f8c1d7e46577bd0fa1357cd5fb900a05f07838e6e0c61e04944c2878e96cc4eefcfaeb2bf9fc15e9a460d3a9fc1e3468d16a254ce0e2d38768be729f604d OP_CHECKSIG","hex":"4104b2b6f8c1d7e46577bd0fa1357cd5fb900a05f07838e6e0c61e04944c2878e96cc4eefcfaeb2bf9fc15e9a460d3a9fc1e3468d16a254ce0e2d38768be729f604dac","reqSigs":1,"type":"pubkey","addresses":["15kHBARv1ZaCrmyExVUn6Uh7wnJVXveF8A"]}}],"hex":"01000000010000000000000000000000000000000000000000000000000000000000000000ffffffff0704ffff001d0106ffffffff0100f2052a01000000434104b2b6f8c1d7e46577bd0fa1357cd5fb900a05f07838e6e0c61e04944c2878e96cc4eefcfaeb2bf9fc15e9a460d3a9fc1e3468d16a254ce0e2d38768be729f604dac00000000"}],"time":1231681965,"mediantime":1231676873,"nonce":397110364,"bits":"1d00ffff","difficulty":1,"chainwork":"0000000000000000000000000000000000000000000000000000008000800080","nTx":1,"previousblockhash":"000000007f5e80d3196ea9e3f0c0c0dc9d2b75af2d432df5ffe49956d34723fa","nextblockhash":"00000000dda07b33ea6dc860805e868c05f8ffa2e8d35a8157a51ec64f0818f0"}