{"hash":"00000000ca6de0be6c908a7c11f6f1335550824b37408d4a332225a329a65b0d","confirmations":421133,"strippedsize":215,"size":215,"weight":860,"height":178,"version":1,"versionHex":"00000001","merkleroot":"672778aca436894888bb63d7a37d2f67c5942caca93942ee2e98143c08f1f46b","tx":[{"txid":"672778aca436894888bb63d7a37d2f67c5942caca93942ee2e98143c08f1f46b","hash":"672778aca436894888bb63d7a37d2f67c5942caca93942ee2e98143c08f1f46b","version":1,"size":134,"vsize":134,"weight":536,"locktime":0,"vin":[{"coinbase":"04ffff001d0105","sequence":4294967295}],"vout":[{"value":50,"n":0,"scriptPubKey":{"asm":"04c0207ee90e4f760d9839a5049189cc375cc25766588933e5828d6e4395e82522d51526af0c3f45f7c4337dffea82a4899f4277ba734359070fe6dd68abae87a6 OP_CHECKSIG","hex":"4104c0207ee90e4f760d9839a5049189cc375cc25766588933e5828d6e4395e82522d51526af0c3f45f7c4337dffea82a4899f4277ba734359070fe6dd68abae87a6ac","reqSigs":1,"type":"pubkey","addresses":["128KyT3PMB3WLcZVu48asfaTwtb6tZE2dm"]}}],"hex":"01000000010000000000000000000000000000000000000000000000000000000000000000ffffffff0704ffff001d0105ffffffff0100f2052a01000000434104c0207ee90e4f760d9839a5049189cc375cc25766588933e5828d6e4395e82522d51526af0c3f45f7c4337dffea82a4899f4277ba734359070fe6dd68abae87a6ac00000000"}],"time":1231737131,"mediantime":1231732245,"nonce":4117295153,"bits":"1d00ffff","difficulty":1,"chainwork":"000000000000000000000000000000000000000000000000000000b300b300b3","nTx":1,"previousblockhash":"00000000480c9799dd2b35009ff1833f69690f76c26a9bea7e00cd0042f67db1","nextblockhash":"00000000c0ab5a6b27502869414c5b004fbca3ba8f291d2c8b2d8dbd6225e170"}