{"hash":"00000000297e095567db935fefecb1d495b3fbcbbe5ce37dee325a98ba357a2b","confirmations":421075,"strippedsize":215,"size":215,"weight":860,"height":236,"version":1,"versionHex":"00000001","merkleroot":"8cda9b1663ae15d9f8b3da2e3e5335e2ced509f9d36eb36206dc5845eef65d35","tx":[{"txid":"8cda9b1663ae15d9f8b3da2e3e5335e2ced509f9d36eb36206dc5845eef65d35","hash":"8cda9b1663ae15d9f8b3da2e3e5335e2ced509f9d36eb36206dc5845eef65d35","version":1,"size":134,"vsize":134,"weight":536,"locktime":0,"vin":[{"coinbase":"04ffff001d0107","sequence":4294967295}],"vout":[{"value":50,"n":0,"scriptPubKey":{"asm":"04d37dbaaee3a1a9b675113b49e6368d4ad7692f721ef319e8fd0f36d5bea224a3885cc8c565c5f55362f274f059b92e24a1a5fd25ac6aeeb61cf5ad20207dbf81 OP_CHECKSIG","hex":"4104d37dbaaee3a1a9b675113b49e6368d4ad7692f721ef319e8fd0f36d5bea224a3885cc8c565c5f55362f274f059b92e24a1a5fd25ac6aeeb61cf5ad20207dbf81ac","reqSigs":1,"type":"pubkey","addresses":["1FhKNo8JmNrPKnqJv5rTFMrw98H7soXTXu"]}}],"hex":"01000000010000000000000000000000000000000000000000000000000000000000000000ffffffff0704ffff001d0107ffffffff0100f2052a01000000434104d37dbaaee3a1a9b675113b49e6368d4ad7692f721ef319e8fd0f36d5bea224a3885cc8c565c5f55362f274f059b92e24a1a5fd25ac6aeeb61cf5ad20207dbf81ac00000000"}],"time":1231781159,"mediantime":1231777403,"nonce":30447564,"bits":"1d00ffff","difficulty":1,"chainwork":"000000000000000000000000000000000000000000000000000000ed00ed00ed","nTx":1,"previousblockhash":"000000006006272b61243f806117f2b4d4482e1d3e83ee799b00015e551b81d2","nextblockhash":"000000003ee212a38ae0326c5982e3012754bb6a730f885bd955673982df83ca"}