{"hash":"0000000065c3ca6a832e4dd696185c2e6bf1e982b275ce6fb86df555f71a379c","confirmations":421057,"strippedsize":216,"size":216,"weight":864,"height":254,"version":1,"versionHex":"00000001","merkleroot":"3949d0ae1e01cce3b6073389b628a320eabf93cbc34afebbea1315a397403b50","tx":[{"txid":"3949d0ae1e01cce3b6073389b628a320eabf93cbc34afebbea1315a397403b50","hash":"3949d0ae1e01cce3b6073389b628a320eabf93cbc34afebbea1315a397403b50","version":1,"size":135,"vsize":135,"weight":540,"locktime":0,"vin":[{"coinbase":"04ffff001d022901","sequence":4294967295}],"vout":[{"value":50,"n":0,"scriptPubKey":{"asm":"04aa8586521d66633ffd4335031b123102e1cb05d12bae1ad1c300c30134a95c6eb81433be13e2e23f89d3b367abb22b537fe5934df6180a102c05e00a23feeb06 OP_CHECKSIG","hex":"4104aa8586521d66633ffd4335031b123102e1cb05d12bae1ad1c300c30134a95c6eb81433be13e2e23f89d3b367abb22b537fe5934df6180a102c05e00a23feeb06ac","reqSigs":1,"type":"pubkey","addresses":["17uiEVD2d9U33YzfYJ2vZ9BrUhmMYVnK8M"]}}],"hex":"01000000010000000000000000000000000000000000000000000000000000000000000000ffffffff0804ffff001d022901ffffffff0100f2052a01000000434104aa8586521d66633ffd4335031b123102e1cb05d12bae1ad1c300c30134a95c6eb81433be13e2e23f89d3b367abb22b537fe5934df6180a102c05e00a23feeb06ac00000000"}],"time":1231796561,"mediantime":1231791095,"nonce":1094333482,"bits":"1d00ffff","difficulty":1,"chainwork":"000000000000000000000000000000000000000000000000000000ff00ff00ff","nTx":1,"previousblockhash":"00000000d1c33e314501b8e8ad742afe030dd2eb8ac41affa0149ccc702f440b","nextblockhash":"00000000d0a75c861fabf9ff7b92022f60e4afeed9331fe5aa073d8e4706fe3c"}