{"hash":"0000000032501f50fe47fd32d16bc632c04170255d407b7d15652c32d119397f","confirmations":421051,"strippedsize":216,"size":216,"weight":864,"height":260,"version":1,"versionHex":"00000001","merkleroot":"4d8ff7ae5fc60f67069f0b4dd5da0d85ae9b64676c05cc01ffc500cf345b14f3","tx":[{"txid":"4d8ff7ae5fc60f67069f0b4dd5da0d85ae9b64676c05cc01ffc500cf345b14f3","hash":"4d8ff7ae5fc60f67069f0b4dd5da0d85ae9b64676c05cc01ffc500cf345b14f3","version":1,"size":135,"vsize":135,"weight":540,"locktime":0,"vin":[{"coinbase":"04ffff001d025601","sequence":4294967295}],"vout":[{"value":50,"n":0,"scriptPubKey":{"asm":"04381e11f6c847c7c6b9efe03c7de209b0e7256caeb2e46164f15722a16052f2c594d2ed6001ed27ed02f0e8c2ac29424cea035847a28a1e17f9471d175b614ea6 OP_CHECKSIG","hex":"4104381e11f6c847c7c6b9efe03c7de209b0e7256caeb2e46164f15722a16052f2c594d2ed6001ed27ed02f0e8c2ac29424cea035847a28a1e17f9471d175b614ea6ac","reqSigs":1,"type":"pubkey","addresses":["13F1h7nLa4bgwgvjnRnBYh5cn1kpT4Mo2p"]}}],"hex":"01000000010000000000000000000000000000000000000000000000000000000000000000ffffffff0804ffff001d025601ffffffff0100f2052a01000000434104381e11f6c847c7c6b9efe03c7de209b0e7256caeb2e46164f15722a16052f2c594d2ed6001ed27ed02f0e8c2ac29424cea035847a28a1e17f9471d175b614ea6ac00000000"}],"time":1231802728,"mediantime":1231797290,"nonce":51169568,"bits":"1d00ffff","difficulty":1,"chainwork":"0000000000000000000000000000000000000000000000000000010501050105","nTx":1,"previousblockhash":"00000000054c9ef1411c5a90efe18651625620737bd73e61e33ca5046907efd1","nextblockhash":"00000000054aad44afc89e1f4e0ee9561568629273df16153e425a2eb9cbbcb9"}