{"hash":"00000000a3ea820f0c258b8379b6f6c2ef0260e19aa78f60aae160caf2a8abd5","confirmations":420983,"strippedsize":216,"size":216,"weight":864,"height":328,"version":1,"versionHex":"00000001","merkleroot":"963f584442e40298d9631f4b03c90e6bf4be6c934d7cea764848e1bd645de5cf","tx":[{"txid":"963f584442e40298d9631f4b03c90e6bf4be6c934d7cea764848e1bd645de5cf","hash":"963f584442e40298d9631f4b03c90e6bf4be6c934d7cea764848e1bd645de5cf","version":1,"size":135,"vsize":135,"weight":540,"locktime":0,"vin":[{"coinbase":"04ffff001d021c01","sequence":4294967295}],"vout":[{"value":50,"n":0,"scriptPubKey":{"asm":"04870ee5e972cd85ebb6aa8d843fe6c407afb9bc6b7a843eaf588afcd98d6f1e8bbb10903ff902ba14bf0fd4193ea3a75e59012acc202ebb73489cde60ef601dc8 OP_CHECKSIG","hex":"4104870ee5e972cd85ebb6aa8d843fe6c407afb9bc6b7a843eaf588afcd98d6f1e8bbb10903ff902ba14bf0fd4193ea3a75e59012acc202ebb73489cde60ef601dc8ac","reqSigs":1,"type":"pubkey","addresses":["1ELjm88xyqdU5cd5o5JpJuuWbdQfakRaKD"]}}],"hex":"01000000010000000000000000000000000000000000000000000000000000000000000000ffffffff0804ffff001d021c01ffffffff0100f2052a01000000434104870ee5e972cd85ebb6aa8d843fe6c407afb9bc6b7a843eaf588afcd98d6f1e8bbb10903ff902ba14bf0fd4193ea3a75e59012acc202ebb73489cde60ef601dc8ac00000000"}],"time":1231851944,"mediantime":1231848372,"nonce":2355115016,"bits":"1d00ffff","difficulty":1,"chainwork":"0000000000000000000000000000000000000000000000000000014901490149","nTx":1,"previousblockhash":"00000000704779006e444bbfb928cd324da7c62685e7b4f120301e3ad59be0da","nextblockhash":"000000000b9cd32f191a1b3538127a93726f0ed20a21871d962eff0d655a1875"}