{"hash":"000000009f5056791a32a8428ff4077fb5fe3c264fbdb72a10310ca3c6ee8d70","confirmations":420980,"strippedsize":216,"size":216,"weight":864,"height":331,"version":1,"versionHex":"00000001","merkleroot":"ace381ede0930705a2b99f836fae6555872297fb8167b59d153de387160d4d4b","tx":[{"txid":"ace381ede0930705a2b99f836fae6555872297fb8167b59d153de387160d4d4b","hash":"ace381ede0930705a2b99f836fae6555872297fb8167b59d153de387160d4d4b","version":1,"size":135,"vsize":135,"weight":540,"locktime":0,"vin":[{"coinbase":"04ffff001d022b01","sequence":4294967295}],"vout":[{"value":50,"n":0,"scriptPubKey":{"asm":"04b1c56cc9ba528cab08ec184aab2a4c165d52c5ef2db88169e3396b269327b1f69f43d3c5eb21c1b196874d24ed84a6b35750feaf889f0e43c026f74f865eea0e OP_CHECKSIG","hex":"4104b1c56cc9ba528cab08ec184aab2a4c165d52c5ef2db88169e3396b269327b1f69f43d3c5eb21c1b196874d24ed84a6b35750feaf889f0e43c026f74f865eea0eac","reqSigs":1,"type":"pubkey","addresses":["1CRVKdW1nJrZSGUfZU6iSXhK1MQqsnjpz3"]}}],"hex":"01000000010000000000000000000000000000000000000000000000000000000000000000ffffffff0804ffff001d022b01ffffffff0100f2052a01000000434104b1c56cc9ba528cab08ec184aab2a4c165d52c5ef2db88169e3396b269327b1f69f43d3c5eb21c1b196874d24ed84a6b35750feaf889f0e43c026f74f865eea0eac00000000"}],"time":1231854172,"mediantime":1231850712,"nonce":1912508199,"bits":"1d00ffff","difficulty":1,"chainwork":"0000000000000000000000000000000000000000000000000000014c014c014c","nTx":1,"previousblockhash":"00000000931292b665ecaadb744af46f877df2144d240e11e76f16cb1f6531c0","nextblockhash":"000000001728a65efe3fe56198dd6112d7f76cc8e967d4fb958a0b4d3a08fb15"}