{"hash":"000000003f87de459605bbbbbb06f4207ff09f79c7e516aca650545b374b26be","confirmations":420964,"strippedsize":216,"size":216,"weight":864,"height":347,"version":1,"versionHex":"00000001","merkleroot":"9ca6cdc75db707190ad5dd1286a1969d543474dbc16ceeca22b4b5d841771716","tx":[{"txid":"9ca6cdc75db707190ad5dd1286a1969d543474dbc16ceeca22b4b5d841771716","hash":"9ca6cdc75db707190ad5dd1286a1969d543474dbc16ceeca22b4b5d841771716","version":1,"size":135,"vsize":135,"weight":540,"locktime":0,"vin":[{"coinbase":"04ffff001d026e01","sequence":4294967295}],"vout":[{"value":50,"n":0,"scriptPubKey":{"asm":"04234238bd10862bbe823e143ab8934df5b1c01a0506050cf7cc716cd422739e2bbdd687b3094d701f38c0a59d2fa43233f198489ac313af9c5f3598a700347967 OP_CHECKSIG","hex":"4104234238bd10862bbe823e143ab8934df5b1c01a0506050cf7cc716cd422739e2bbdd687b3094d701f38c0a59d2fa43233f198489ac313af9c5f3598a700347967ac","reqSigs":1,"type":"pubkey","addresses":["1JxgVi59npkWPPU57Kr9MAb5uwhWj6Gp6w"]}}],"hex":"01000000010000000000000000000000000000000000000000000000000000000000000000ffffffff0804ffff001d026e01ffffffff0100f2052a01000000434104234238bd10862bbe823e143ab8934df5b1c01a0506050cf7cc716cd422739e2bbdd687b3094d701f38c0a59d2fa43233f198489ac313af9c5f3598a700347967ac00000000"}],"time":1231863290,"mediantime":1231860068,"nonce":141973295,"bits":"1d00ffff","difficulty":1,"chainwork":"0000000000000000000000000000000000000000000000000000015c015c015c","nTx":1,"previousblockhash":"0000000036d62217cd8364db8ab43303379061f7c1d7eecfe49ce10c6ef9a4b7","nextblockhash":"000000008d47f2e62a4fc29427cae537426c7ff461719e7f0433e785138b751c"}