{"hash":"00000000f824d643f525b4904ea25c92174b8499435f388549a1700f4d3244de","confirmations":421275,"strippedsize":215,"size":215,"weight":860,"height":36,"version":1,"versionHex":"00000001","merkleroot":"d05d256fbd5845b30039e37d48215788a4e438249048c47ddb9c83cd927d4d5a","tx":[{"txid":"d05d256fbd5845b30039e37d48215788a4e438249048c47ddb9c83cd927d4d5a","hash":"d05d256fbd5845b30039e37d48215788a4e438249048c47ddb9c83cd927d4d5a","version":1,"size":134,"vsize":134,"weight":536,"locktime":0,"vin":[{"coinbase":"04ffff001d0150","sequence":4294967295}],"vout":[{"value":50,"n":0,"scriptPubKey":{"asm":"04ce29c26fb59eadf6b9b38a3e7f52646877bcdcd7b5f290a47a7a61668bda2c82c8f13f66e8665cfe7594d7da51f431df4df2f60df08ecfd53d2f2d076b4bc24e OP_CHECKSIG","hex":"4104ce29c26fb59eadf6b9b38a3e7f52646877bcdcd7b5f290a47a7a61668bda2c82c8f13f66e8665cfe7594d7da51f431df4df2f60df08ecfd53d2f2d076b4bc24eac","reqSigs":1,"type":"pubkey","addresses":["1NHHWnZKTetjZZfAbVjTS9EHQafdH6xn8a"]}}],"hex":"01000000010000000000000000000000000000000000000000000000000000000000000000ffffffff0704ffff001d0150ffffffff0100f2052a01000000434104ce29c26fb59eadf6b9b38a3e7f52646877bcdcd7b5f290a47a7a61668bda2c82c8f13f66e8665cfe7594d7da51f431df4df2f60df08ecfd53d2f2d076b4bc24eac00000000"}],"time":1231605789,"mediantime":1231602736,"nonce":797229870,"bits":"1d00ffff","difficulty":1,"chainwork":"0000000000000000000000000000000000000000000000000000002500250025","nTx":1,"previousblockhash":"00000000b572a465b4e816420d47a16274557b3573b7924b64808a82c7322d9b","nextblockhash":"00000000ddd96d128e122d1179034ff66c27dc583eb9e8996a0b1779c60c6f86"}