{"hash":"00000000a8c559dd08b5a038ce306cdea26549d6fd5bc69afdef5fd472e6ca6c","confirmations":420923,"strippedsize":216,"size":216,"weight":864,"height":388,"version":1,"versionHex":"00000001","merkleroot":"287d7292d35489fdfc814a11c35f1c7d34847e0fca849c5e96fb26b479da50a2","tx":[{"txid":"287d7292d35489fdfc814a11c35f1c7d34847e0fca849c5e96fb26b479da50a2","hash":"287d7292d35489fdfc814a11c35f1c7d34847e0fca849c5e96fb26b479da50a2","version":1,"size":135,"vsize":135,"weight":540,"locktime":0,"vin":[{"coinbase":"04ffff001d023c02","sequence":4294967295}],"vout":[{"value":50,"n":0,"scriptPubKey":{"asm":"04b9bff8c6e979877694d5254dbb03fcc7442e4ab00850a88359793cd6d6300153e693c76199891fecf44b143d22c6a769b7307a706f309c8f40d36428822203a5 OP_CHECKSIG","hex":"4104b9bff8c6e979877694d5254dbb03fcc7442e4ab00850a88359793cd6d6300153e693c76199891fecf44b143d22c6a769b7307a706f309c8f40d36428822203a5ac","reqSigs":1,"type":"pubkey","addresses":["1AnHrnD7UbCVwHwWkBYiE9fTpvEnNiitVc"]}}],"hex":"01000000010000000000000000000000000000000000000000000000000000000000000000ffffffff0804ffff001d023c02ffffffff0100f2052a01000000434104b9bff8c6e979877694d5254dbb03fcc7442e4ab00850a88359793cd6d6300153e693c76199891fecf44b143d22c6a769b7307a706f309c8f40d36428822203a5ac00000000"}],"time":1231893644,"mediantime":1231889357,"nonce":2149834534,"bits":"1d00ffff","difficulty":1,"chainwork":"0000000000000000000000000000000000000000000000000000018501850185","nTx":1,"previousblockhash":"0000000014669130de860bc311833a43cd310d0d9cbc3ac0a4801e6cb213646f","nextblockhash":"0000000020fd18966269582d45778b66492cff334aebdf939c0786dbf30815d7"}