{"hash":"00000000827d29aff6dd1f65c772885502960a7416957e5a00dfcff8a4374bdc","confirmations":420777,"strippedsize":216,"size":216,"weight":864,"height":534,"version":1,"versionHex":"00000001","merkleroot":"ffeb626a814334761798b3c6057d0952926be129c01778ad650829640522d3eb","tx":[{"txid":"ffeb626a814334761798b3c6057d0952926be129c01778ad650829640522d3eb","hash":"ffeb626a814334761798b3c6057d0952926be129c01778ad650829640522d3eb","version":1,"size":135,"vsize":135,"weight":540,"locktime":0,"vin":[{"coinbase":"04ffff001d025105","sequence":4294967295}],"vout":[{"value":50,"n":0,"scriptPubKey":{"asm":"04b8c7346f1d246589eab66c87c56781624e2d44c205276c336ac5bf6e68e2c72d4e9caa9b21a06d4105dad295e14946c7ebd843e246433737d399483c5def855e OP_CHECKSIG","hex":"4104b8c7346f1d246589eab66c87c56781624e2d44c205276c336ac5bf6e68e2c72d4e9caa9b21a06d4105dad295e14946c7ebd843e246433737d399483c5def855eac","reqSigs":1,"type":"pubkey","addresses":["1zL84Kf5T6KKQwTCWZiVoo9GSV57ChdUt"]}}],"hex":"01000000010000000000000000000000000000000000000000000000000000000000000000ffffffff0804ffff001d025105ffffffff0100f2052a01000000434104b8c7346f1d246589eab66c87c56781624e2d44c205276c336ac5bf6e68e2c72d4e9caa9b21a06d4105dad295e14946c7ebd843e246433737d399483c5def855eac00000000"}],"time":1231991091,"mediantime":1231987028,"nonce":1995823383,"bits":"1d00ffff","difficulty":1,"chainwork":"0000000000000000000000000000000000000000000000000000021702170217","nTx":1,"previousblockhash":"00000000dd86f3873dfdc4e2f5f18f40575d14b20696406511815f1b97e67eea","nextblockhash":"00000000eae98bf15e531e004bcaffdf3c5c5cc6444c52a9fd0f82101249ba95"}