{"hash":"00000000169808a15adcbb7c4f5c8b5d61ef69764a68f2fffd882d92e39fc2af","confirmations":420773,"strippedsize":216,"size":216,"weight":864,"height":538,"version":1,"versionHex":"00000001","merkleroot":"47059b8be91745149780c92861e30c3d1818fb7d0e3be03487aaa251ed9ddc47","tx":[{"txid":"47059b8be91745149780c92861e30c3d1818fb7d0e3be03487aaa251ed9ddc47","hash":"47059b8be91745149780c92861e30c3d1818fb7d0e3be03487aaa251ed9ddc47","version":1,"size":135,"vsize":135,"weight":540,"locktime":0,"vin":[{"coinbase":"04ffff001d025e05","sequence":4294967295}],"vout":[{"value":50,"n":0,"scriptPubKey":{"asm":"044a60251062fc4f5fb0bf95b6ab485ee5b28b3cc7d369e3b2becaa2f4d72230faab4981d6333b03c996f21695c5931bfe5c1b12099c0ca09f12788e7dff096750 OP_CHECKSIG","hex":"41044a60251062fc4f5fb0bf95b6ab485ee5b28b3cc7d369e3b2becaa2f4d72230faab4981d6333b03c996f21695c5931bfe5c1b12099c0ca09f12788e7dff096750ac","reqSigs":1,"type":"pubkey","addresses":["19aFevdZpk6pU21zn8cA4J3MtkaSugH8pi"]}}],"hex":"01000000010000000000000000000000000000000000000000000000000000000000000000ffffffff0804ffff001d025e05ffffffff0100f2052a010000004341044a60251062fc4f5fb0bf95b6ab485ee5b28b3cc7d369e3b2becaa2f4d72230faab4981d6333b03c996f21695c5931bfe5c1b12099c0ca09f12788e7dff096750ac00000000"}],"time":1231993954,"mediantime":1231989852,"nonce":903536933,"bits":"1d00ffff","difficulty":1,"chainwork":"0000000000000000000000000000000000000000000000000000021b021b021b","nTx":1,"previousblockhash":"00000000d8844f55ef05e1605b04f37c5b3436fa2abcf24a8942bd885b5d18a7","nextblockhash":"00000000eaa3b87c3687480c0edb465b00e8dcab7f0c2ef10fe5b11a1756b16d"}