{"hash":"00000000ef6644f79c0e3363c0359de10bc485d9d032af7c8097b325b54a2497","confirmations":420651,"strippedsize":215,"size":215,"weight":860,"height":660,"version":1,"versionHex":"00000001","merkleroot":"f31ea902c012f14f741c318dca15af3b53c3bda9bec5cfef89f61a631b79407f","tx":[{"txid":"f31ea902c012f14f741c318dca15af3b53c3bda9bec5cfef89f61a631b79407f","hash":"f31ea902c012f14f741c318dca15af3b53c3bda9bec5cfef89f61a631b79407f","version":1,"size":134,"vsize":134,"weight":536,"locktime":0,"vin":[{"coinbase":"04ffff001d0107","sequence":4294967295}],"vout":[{"value":50,"n":0,"scriptPubKey":{"asm":"0460f3c62a62cf99b5a8b02abe5a5bd89378cb3dc3565d91ee6a80939e34371757c5cd7de00d029f2ae79e933ae3c66920e979ca7c226211ec8b9862a9aa534c4b OP_CHECKSIG","hex":"410460f3c62a62cf99b5a8b02abe5a5bd89378cb3dc3565d91ee6a80939e34371757c5cd7de00d029f2ae79e933ae3c66920e979ca7c226211ec8b9862a9aa534c4bac","reqSigs":1,"type":"pubkey","addresses":["1PsUpBKZJeMkWJcQP1P3ficpVh3XxCzL3o"]}}],"hex":"01000000010000000000000000000000000000000000000000000000000000000000000000ffffffff0704ffff001d0107ffffffff0100f2052a0100000043410460f3c62a62cf99b5a8b02abe5a5bd89378cb3dc3565d91ee6a80939e34371757c5cd7de00d029f2ae79e933ae3c66920e979ca7c226211ec8b9862a9aa534c4bac00000000"}],"time":1232074673,"mediantime":1232072093,"nonce":1735193601,"bits":"1d00ffff","difficulty":1,"chainwork":"0000000000000000000000000000000000000000000000000000029502950295","nTx":1,"previousblockhash":"00000000de071e247a1f44be9908714f0cc8282e2ddcdf7d2c4b3dbca9a624d3","nextblockhash":"0000000067329a9d48d204813cc35e8b89a8c476f292d92f58691b9535b8da63"}