{"hash":"000000008b3292ededf3a3a675c44bb2a2ac378878fad1c10cef4219f2d95100","confirmations":420646,"strippedsize":215,"size":215,"weight":860,"height":665,"version":1,"versionHex":"00000001","merkleroot":"d733e2195bd854e28baa1d0bf2551184e1dbcd96e1b71eb2e90400733723d2be","tx":[{"txid":"d733e2195bd854e28baa1d0bf2551184e1dbcd96e1b71eb2e90400733723d2be","hash":"d733e2195bd854e28baa1d0bf2551184e1dbcd96e1b71eb2e90400733723d2be","version":1,"size":134,"vsize":134,"weight":536,"locktime":0,"vin":[{"coinbase":"04ffff001d0150","sequence":4294967295}],"vout":[{"value":50,"n":0,"scriptPubKey":{"asm":"0436296bf28011beb6640e46471257d1b94ab2c48b2a6aae894a0f6878961e646903185466aa9fadce1b2bd8141b18b578233d754e8d496d4a5f6a37f6b7798841 OP_CHECKSIG","hex":"410436296bf28011beb6640e46471257d1b94ab2c48b2a6aae894a0f6878961e646903185466aa9fadce1b2bd8141b18b578233d754e8d496d4a5f6a37f6b7798841ac","reqSigs":1,"type":"pubkey","addresses":["16koVUpQrVr8ZotUr9g3RQ7AgWNuwpYVws"]}}],"hex":"01000000010000000000000000000000000000000000000000000000000000000000000000ffffffff0704ffff001d0150ffffffff0100f2052a0100000043410436296bf28011beb6640e46471257d1b94ab2c48b2a6aae894a0f6878961e646903185466aa9fadce1b2bd8141b18b578233d754e8d496d4a5f6a37f6b7798841ac00000000"}],"time":1232078458,"mediantime":1232074673,"nonce":10639183,"bits":"1d00ffff","difficulty":1,"chainwork":"0000000000000000000000000000000000000000000000000000029a029a029a","nTx":1,"previousblockhash":"00000000314adfb954aa27794bf6015ff65112ad64adf179338e979108277226","nextblockhash":"00000000fc5b3c76f27f810ee775e480ae7fd604fd196b2d8da4257fcd39f4f9"}