{"hash":"000000006e86c045f9802af84992d9b1d5f099157b9eb89328477ce57ec6f038","confirmations":420570,"strippedsize":215,"size":215,"weight":860,"height":741,"version":1,"versionHex":"00000001","merkleroot":"a05d8568954356ac355e7433b992c7aac42529e85e0acbd11b349200fa291720","tx":[{"txid":"a05d8568954356ac355e7433b992c7aac42529e85e0acbd11b349200fa291720","hash":"a05d8568954356ac355e7433b992c7aac42529e85e0acbd11b349200fa291720","version":1,"size":134,"vsize":134,"weight":536,"locktime":0,"vin":[{"coinbase":"04ffff001d0179","sequence":4294967295}],"vout":[{"value":50,"n":0,"scriptPubKey":{"asm":"0481ed3dc28473d702d7e832506d0c59bcd5a0874971c8d98b5a5bd895950b6710ad4d0e2413a28afbd8b0387382c57d55aeb6247201464c1005585415522cfa51 OP_CHECKSIG","hex":"410481ed3dc28473d702d7e832506d0c59bcd5a0874971c8d98b5a5bd895950b6710ad4d0e2413a28afbd8b0387382c57d55aeb6247201464c1005585415522cfa51ac","reqSigs":1,"type":"pubkey","addresses":["1H8xEqy87JznjoKakuyJqv5VBeBuW5Wkrx"]}}],"hex":"01000000010000000000000000000000000000000000000000000000000000000000000000ffffffff0704ffff001d0179ffffffff0100f2052a0100000043410481ed3dc28473d702d7e832506d0c59bcd5a0874971c8d98b5a5bd895950b6710ad4d0e2413a28afbd8b0387382c57d55aeb6247201464c1005585415522cfa51ac00000000"}],"time":1232142119,"mediantime":1232139204,"nonce":3752653341,"bits":"1d00ffff","difficulty":1,"chainwork":"000000000000000000000000000000000000000000000000000002e602e602e6","nTx":1,"previousblockhash":"00000000c39060871c6665d8307228083949ced6652605b764b2ffd52bac8d7d","nextblockhash":"00000000727ad4862f92633549f451cd8f478f1bc40e9149f80eb415da3a7533"}