{"hash":"00000000eaf0da6bac4f877a43261dd151550d4103b4d57f6ece36c143e48a17","confirmations":420552,"strippedsize":216,"size":216,"weight":864,"height":759,"version":1,"versionHex":"00000001","merkleroot":"a19280f07c87c17f64c3cb123343786277a72bd36332b89cdc2ddafbadd3ae2b","tx":[{"txid":"a19280f07c87c17f64c3cb123343786277a72bd36332b89cdc2ddafbadd3ae2b","hash":"a19280f07c87c17f64c3cb123343786277a72bd36332b89cdc2ddafbadd3ae2b","version":1,"size":135,"vsize":135,"weight":540,"locktime":0,"vin":[{"coinbase":"04ffff001d02c300","sequence":4294967295}],"vout":[{"value":50,"n":0,"scriptPubKey":{"asm":"049f977ef6d8b7c7f26f2d09f28c79ef76b3c3f726895851fda0f70c60cd7f379996fcc2ef8d39a6c7d2df0ceb3f60aa80d7faa41f7a7848c82c1fbb3c093f878a OP_CHECKSIG","hex":"41049f977ef6d8b7c7f26f2d09f28c79ef76b3c3f726895851fda0f70c60cd7f379996fcc2ef8d39a6c7d2df0ceb3f60aa80d7faa41f7a7848c82c1fbb3c093f878aac","reqSigs":1,"type":"pubkey","addresses":["1H9AWe2V3gm1tiQo4eHv1MKA5dDPSWfE29"]}}],"hex":"01000000010000000000000000000000000000000000000000000000000000000000000000ffffffff0804ffff001d02c300ffffffff0100f2052a010000004341049f977ef6d8b7c7f26f2d09f28c79ef76b3c3f726895851fda0f70c60cd7f379996fcc2ef8d39a6c7d2df0ceb3f60aa80d7faa41f7a7848c82c1fbb3c093f878aac00000000"}],"time":1232158170,"mediantime":1232154634,"nonce":185053952,"bits":"1d00ffff","difficulty":1,"chainwork":"000000000000000000000000000000000000000000000000000002f802f802f8","nTx":1,"previousblockhash":"00000000249d85e360e7fa196bb6cb040fc5bb6cabc4f8e3c0bf5a0a160eae8e","nextblockhash":"000000000a2c58c01e09387a9627a789f9ec05fb926724dfdd80b4b27a3a8a6b"}