{"hash":"00000000f6df91f727f4554d0f020cf785d689302a2cc5f6542b1f88bfcaf110","confirmations":420525,"strippedsize":215,"size":215,"weight":860,"height":786,"version":1,"versionHex":"00000001","merkleroot":"0b5fe307d48f43967ac786142db01e99314d275e78e995fc9f778c248e6194ac","tx":[{"txid":"0b5fe307d48f43967ac786142db01e99314d275e78e995fc9f778c248e6194ac","hash":"0b5fe307d48f43967ac786142db01e99314d275e78e995fc9f778c248e6194ac","version":1,"size":134,"vsize":134,"weight":536,"locktime":0,"vin":[{"coinbase":"04ffff001d0175","sequence":4294967295}],"vout":[{"value":50,"n":0,"scriptPubKey":{"asm":"04ee357d6a15ff6633b4e8b1d57a95f5aa8042444fd54683579843c198fec151e79fce16425b93b507e6f7c3a4c248deab7682d2b2e804a1d23945abdbdc65039d OP_CHECKSIG","hex":"4104ee357d6a15ff6633b4e8b1d57a95f5aa8042444fd54683579843c198fec151e79fce16425b93b507e6f7c3a4c248deab7682d2b2e804a1d23945abdbdc65039dac","reqSigs":1,"type":"pubkey","addresses":["1PyKe5Dokd9T6WMq1Wjc4mZ99v88dCKJWe"]}}],"hex":"01000000010000000000000000000000000000000000000000000000000000000000000000ffffffff0704ffff001d0175ffffffff0100f2052a01000000434104ee357d6a15ff6633b4e8b1d57a95f5aa8042444fd54683579843c198fec151e79fce16425b93b507e6f7c3a4c248deab7682d2b2e804a1d23945abdbdc65039dac00000000"}],"time":1232180428,"mediantime":1232175823,"nonce":23300307,"bits":"1d00ffff","difficulty":1,"chainwork":"0000000000000000000000000000000000000000000000000000031303130313","nTx":1,"previousblockhash":"00000000e5fec80c2f953b79ce5b60fbe7473d0fe4fa3dd0895560c9465554b7","nextblockhash":"00000000cbaf0ee85c41dae62e6898ea29801106c24c382c2d29d16c3aee12ba"}