{"hash":"000000000057d77971fb0bf24812e155f9eb7c4eea682b62defd627b7d42c2eb","confirmations":420510,"strippedsize":216,"size":216,"weight":864,"height":801,"version":1,"versionHex":"00000001","merkleroot":"1b999398694feaa6c2d583d512bbe99db1fd110e7f2cffa149e08cad5f0f645f","tx":[{"txid":"1b999398694feaa6c2d583d512bbe99db1fd110e7f2cffa149e08cad5f0f645f","hash":"1b999398694feaa6c2d583d512bbe99db1fd110e7f2cffa149e08cad5f0f645f","version":1,"size":135,"vsize":135,"weight":540,"locktime":0,"vin":[{"coinbase":"04ffff001d028a01","sequence":4294967295}],"vout":[{"value":50,"n":0,"scriptPubKey":{"asm":"04aee3e63c3863caf8804f38fbf99c1ab38e69f12f978df12dd76a2b705656b7387b6232bf5626379802efcdbb920e552400815bfb356b26bb47903bcc06bc20ae OP_CHECKSIG","hex":"4104aee3e63c3863caf8804f38fbf99c1ab38e69f12f978df12dd76a2b705656b7387b6232bf5626379802efcdbb920e552400815bfb356b26bb47903bcc06bc20aeac","reqSigs":1,"type":"pubkey","addresses":["1Lonp1EhnR5t4iUc4ZUsqnBsDfvHbC6FJ5"]}}],"hex":"01000000010000000000000000000000000000000000000000000000000000000000000000ffffffff0804ffff001d028a01ffffffff0100f2052a01000000434104aee3e63c3863caf8804f38fbf99c1ab38e69f12f978df12dd76a2b705656b7387b6232bf5626379802efcdbb920e552400815bfb356b26bb47903bcc06bc20aeac00000000"}],"time":1232195440,"mediantime":1232189223,"nonce":968538139,"bits":"1d00ffff","difficulty":1,"chainwork":"0000000000000000000000000000000000000000000000000000032203220322","nTx":1,"previousblockhash":"00000000def8545899ea7274e5c59bda5982f8f960052774df45b7d5c64f9c5d","nextblockhash":"000000001e8f64f7d397e1576d272c071abf6b66babe6d6a657d2b1dfa20606e"}