{"hash":"00000000170dacd25631952163cce7b2fbffcb7e0b63aacea2a1b16d52dac3a8","confirmations":420396,"strippedsize":216,"size":216,"weight":864,"height":915,"version":1,"versionHex":"00000001","merkleroot":"75e7b6ae4c82b47ec4ec201ebd00c9966e40f63bee5d8a996de9e9f87308d096","tx":[{"txid":"75e7b6ae4c82b47ec4ec201ebd00c9966e40f63bee5d8a996de9e9f87308d096","hash":"75e7b6ae4c82b47ec4ec201ebd00c9966e40f63bee5d8a996de9e9f87308d096","version":1,"size":135,"vsize":135,"weight":540,"locktime":0,"vin":[{"coinbase":"04ffff001d021401","sequence":4294967295}],"vout":[{"value":50,"n":0,"scriptPubKey":{"asm":"04414879dc5cd19c8776f0f329738d0c0c399d8bae33af061541c9c54722acdd89b9dbb9cd4b13c3346d1cd5fa6b9e64f2dc30229de25844adb9169fe4a574393b OP_CHECKSIG","hex":"4104414879dc5cd19c8776f0f329738d0c0c399d8bae33af061541c9c54722acdd89b9dbb9cd4b13c3346d1cd5fa6b9e64f2dc30229de25844adb9169fe4a574393bac","reqSigs":1,"type":"pubkey","addresses":["1MEcWn2yPjsCuu3xSQa68c2oosGZDpzHjT"]}}],"hex":"01000000010000000000000000000000000000000000000000000000000000000000000000ffffffff0804ffff001d021401ffffffff0100f2052a01000000434104414879dc5cd19c8776f0f329738d0c0c399d8bae33af061541c9c54722acdd89b9dbb9cd4b13c3346d1cd5fa6b9e64f2dc30229de25844adb9169fe4a574393bac00000000"}],"time":1232288629,"mediantime":1232284184,"nonce":284910225,"bits":"1d00ffff","difficulty":1,"chainwork":"0000000000000000000000000000000000000000000000000000039403940394","nTx":1,"previousblockhash":"00000000f7b6ea92bd64f943a327f6b19ed7799c42a7e284ba6ec1888289a87e","nextblockhash":"00000000740acadf4cce36a0d8d7616f64a7b1fdad10aa93fd33e36bde2a67fc"}