{"hash":"00000000f2e21ad000b8ab779c729d84691415c6197230b82fb7b6e9e3f8faa2","confirmations":420375,"strippedsize":216,"size":216,"weight":864,"height":936,"version":1,"versionHex":"00000001","merkleroot":"f5c067eac438ad7affc6b156e9c21019e3e75436eedc6f7968ad1f9214841bcc","tx":[{"txid":"f5c067eac438ad7affc6b156e9c21019e3e75436eedc6f7968ad1f9214841bcc","hash":"f5c067eac438ad7affc6b156e9c21019e3e75436eedc6f7968ad1f9214841bcc","version":1,"size":135,"vsize":135,"weight":540,"locktime":0,"vin":[{"coinbase":"04ffff001d022904","sequence":4294967295}],"vout":[{"value":50,"n":0,"scriptPubKey":{"asm":"04a6dd00a60ef73650b166215bfa64008fe8a91c4d8550c8a8dd08bf5ca7d0cd3541fd288b3207982fe3fb4f2c68c70d343f66ce66c64cb22834688e1c8eaece9e OP_CHECKSIG","hex":"4104a6dd00a60ef73650b166215bfa64008fe8a91c4d8550c8a8dd08bf5ca7d0cd3541fd288b3207982fe3fb4f2c68c70d343f66ce66c64cb22834688e1c8eaece9eac","reqSigs":1,"type":"pubkey","addresses":["12K7KX62gCG6grqiwZhP8P65AKEtMwhJDo"]}}],"hex":"01000000010000000000000000000000000000000000000000000000000000000000000000ffffffff0804ffff001d022904ffffffff0100f2052a01000000434104a6dd00a60ef73650b166215bfa64008fe8a91c4d8550c8a8dd08bf5ca7d0cd3541fd288b3207982fe3fb4f2c68c70d343f66ce66c64cb22834688e1c8eaece9eac00000000"}],"time":1232303636,"mediantime":1232301208,"nonce":157822764,"bits":"1d00ffff","difficulty":1,"chainwork":"000000000000000000000000000000000000000000000000000003a903a903a9","nTx":1,"previousblockhash":"0000000098ad8bb8446cf0314ac1999c8e9df878128d8f29b16c554134085915","nextblockhash":"00000000581de2600b068e5bd207e7471fa4e9cacb51341a1217be0a8d229905"}