{"hash":"00000000581de2600b068e5bd207e7471fa4e9cacb51341a1217be0a8d229905","confirmations":420374,"strippedsize":216,"size":216,"weight":864,"height":937,"version":1,"versionHex":"00000001","merkleroot":"87d1ae18214ad64aa00ec9ca746c1b1df251aaa4d790709bfaea668c57df6dc0","tx":[{"txid":"87d1ae18214ad64aa00ec9ca746c1b1df251aaa4d790709bfaea668c57df6dc0","hash":"87d1ae18214ad64aa00ec9ca746c1b1df251aaa4d790709bfaea668c57df6dc0","version":1,"size":135,"vsize":135,"weight":540,"locktime":0,"vin":[{"coinbase":"04ffff001d022e04","sequence":4294967295}],"vout":[{"value":50,"n":0,"scriptPubKey":{"asm":"0449049f6e356baa22963b29f5c1115d5bb6c6f22acbbc1f295dfdac4f5a5fd66e23fd4c233ab6bbd302427d34686ea84db9bb44b4ecc32f2e83f8a7e6e4e4d323 OP_CHECKSIG","hex":"410449049f6e356baa22963b29f5c1115d5bb6c6f22acbbc1f295dfdac4f5a5fd66e23fd4c233ab6bbd302427d34686ea84db9bb44b4ecc32f2e83f8a7e6e4e4d323ac","reqSigs":1,"type":"pubkey","addresses":["1PMJkhAaREDfNct8QjGqrRMbqrPjTWzizq"]}}],"hex":"01000000010000000000000000000000000000000000000000000000000000000000000000ffffffff0804ffff001d022e04ffffffff0100f2052a0100000043410449049f6e356baa22963b29f5c1115d5bb6c6f22acbbc1f295dfdac4f5a5fd66e23fd4c233ab6bbd302427d34686ea84db9bb44b4ecc32f2e83f8a7e6e4e4d323ac00000000"}],"time":1232304668,"mediantime":1232301593,"nonce":2578492949,"bits":"1d00ffff","difficulty":1,"chainwork":"000000000000000000000000000000000000000000000000000003aa03aa03aa","nTx":1,"previousblockhash":"00000000f2e21ad000b8ab779c729d84691415c6197230b82fb7b6e9e3f8faa2","nextblockhash":"0000000065f9ca25c3ea505c3913a71ccf0cfe9476c6ed643ad63dd22c074fd2"}