{"hash":"000000005eb3d7fa23603142c9981fb12269a00616eeda1c7657076fd4fc1480","confirmations":420362,"strippedsize":216,"size":216,"weight":864,"height":949,"version":1,"versionHex":"00000001","merkleroot":"265fdbe80440aee7691890db8e5c9479109b2973a3c44bf1e2af9295c2695ef2","tx":[{"txid":"265fdbe80440aee7691890db8e5c9479109b2973a3c44bf1e2af9295c2695ef2","hash":"265fdbe80440aee7691890db8e5c9479109b2973a3c44bf1e2af9295c2695ef2","version":1,"size":135,"vsize":135,"weight":540,"locktime":0,"vin":[{"coinbase":"04ffff001d02ec00","sequence":4294967295}],"vout":[{"value":50,"n":0,"scriptPubKey":{"asm":"04f5781a5cc799bcd22d017d7ad7363d63e0b2bfba48c5590d58e17a57ab3cc864bd486197978174f6a16ffb6d22cafb0a24bedb52b5b9263e4c0c97a8c67e9810 OP_CHECKSIG","hex":"4104f5781a5cc799bcd22d017d7ad7363d63e0b2bfba48c5590d58e17a57ab3cc864bd486197978174f6a16ffb6d22cafb0a24bedb52b5b9263e4c0c97a8c67e9810ac","reqSigs":1,"type":"pubkey","addresses":["12oAMNsu5qmzpcafSKJMYxnPCyaYxui4sp"]}}],"hex":"01000000010000000000000000000000000000000000000000000000000000000000000000ffffffff0804ffff001d02ec00ffffffff0100f2052a01000000434104f5781a5cc799bcd22d017d7ad7363d63e0b2bfba48c5590d58e17a57ab3cc864bd486197978174f6a16ffb6d22cafb0a24bedb52b5b9263e4c0c97a8c67e9810ac00000000"}],"time":1232312474,"mediantime":1232309501,"nonce":103640495,"bits":"1d00ffff","difficulty":1,"chainwork":"000000000000000000000000000000000000000000000000000003b603b603b6","nTx":1,"previousblockhash":"00000000721d433c05a77906cac3261bcfb79b3ce3db11cee016ba1a05e878f1","nextblockhash":"00000000d49a9c4ff3bd924b3f0b083b5169f2dd327090f205d155f76d0e8fec"}